{
  "_format": "hh-sol-artifact-1",
  "contractName": "GmPortal",
  "sourceName": "contracts/GmPortal.sol",
  "abi": [
    {
      "inputs": [],
      "stateMutability": "payable",
      "type": "constructor"
    },
    {
      "anonymous": false,
      "inputs": [
        {
          "indexed": true,
          "internalType": "address",
          "name": "from",
          "type": "address"
        },
        {
          "indexed": false,
          "internalType": "uint256",
          "name": "timestamp",
          "type": "uint256"
        },
        {
          "indexed": false,
          "internalType": "string",
          "name": "message",
          "type": "string"
        },
        {
          "indexed": false,
          "internalType": "uint8",
          "name": "status",
          "type": "uint8"
        }
      ],
      "name": "NewGm",
      "type": "event"
    },
    {
      "inputs": [],
      "name": "getAllGms",
      "outputs": [
        {
          "components": [
            {
              "internalType": "address",
              "name": "gmer",
              "type": "address"
            },
            {
              "internalType": "string",
              "name": "message",
              "type": "string"
            },
            {
              "internalType": "uint256",
              "name": "timestamp",
              "type": "uint256"
            },
            {
              "internalType": "uint8",
              "name": "status",
              "type": "uint8"
            }
          ],
          "internalType": "struct GmPortal.Gm[]",
          "name": "",
          "type": "tuple[]"
        }
      ],
      "stateMutability": "view",
      "type": "function"
    },
    {
      "inputs": [],
      "name": "getTotalGms",
      "outputs": [
        {
          "internalType": "uint256",
          "name": "",
          "type": "uint256"
        }
      ],
      "stateMutability": "view",
      "type": "function"
    },
    {
      "inputs": [
        {
          "internalType": "string",
          "name": "_message",
          "type": "string"
        }
      ],
      "name": "gm",
      "outputs": [],
      "stateMutability": "nonpayable",
      "type": "function"
    },
    {
      "inputs": [
        {
          "internalType": "address",
          "name": "",
          "type": "address"
        }
      ],
      "name": "lastGm",
      "outputs": [
        {
          "internalType": "uint256",
          "name": "",
          "type": "uint256"
        }
      ],
      "stateMutability": "view",
      "type": "function"
    }
  ],
  "bytecode": "0x60806040526200004f6040518060400160405280600281526020017f676d0000000000000000000000000000000000000000000000000000000000008152506200007760201b6200075a1760201c565b606444426200005f9190620001c4565b6200006b919062000261565b60018190555062000308565b62000117816040516024016200008e919062000184565b6040516020818303038152906040527f41304fac000000000000000000000000000000000000000000000000000000007bffffffffffffffffffffffffffffffffffffffffffffffffffffffff19166020820180517bffffffffffffffffffffffffffffffffffffffffffffffffffffffff83818316178352505050506200011a60201b60201c565b50565b60008151905060006a636f6e736f6c652e6c6f679050602083016000808483855afa5050505050565b60006200015082620001a8565b6200015c8185620001b3565b93506200016e8185602086016200022b565b6200017981620002f7565b840191505092915050565b60006020820190508181036000830152620001a0818462000143565b905092915050565b600081519050919050565b600082825260208201905092915050565b6000620001d18262000221565b9150620001de8362000221565b9250827fffffffffffffffffffffffffffffffffffffffffffffffffffffffffffffffff0382111562000216576200021562000299565b5b828201905092915050565b6000819050919050565b60005b838110156200024b5780820151818401526020810190506200022e565b838111156200025b576000848401525b50505050565b60006200026e8262000221565b91506200027b8362000221565b9250826200028e576200028d620002c8565b5b828206905092915050565b7f4e487b7100000000000000000000000000000000000000000000000000000000600052601160045260246000fd5b7f4e487b7100000000000000000000000000000000000000000000000000000000600052601260045260246000fd5b6000601f19601f8301169050919050565b61128480620003186000396000f3fe608060405234801561001057600080fd5b506004361061004c5760003560e01c80633a05e29e14610051578063615479f31461006f5780638a215be31461009f578063d8686ecb146100bd575b600080fd5b6100596100d9565b6040516100669190610df7565b60405180910390f35b61008960048036038101906100849190610a74565b610247565b6040516100969190610efb565b60405180910390f35b6100a761025f565b6040516100b49190610efb565b60405180910390f35b6100d760048036038101906100d29190610a9d565b6102aa565b005b60606002805480602002602001604051908101604052809291908181526020016000905b8282101561023e57838290600052602060002090600402016040518060800160405290816000820160009054906101000a900473ffffffffffffffffffffffffffffffffffffffff1673ffffffffffffffffffffffffffffffffffffffff1673ffffffffffffffffffffffffffffffffffffffff16815260200160018201805461018690611107565b80601f01602080910402602001604051908101604052809291908181526020018280546101b290611107565b80156101ff5780601f106101d4576101008083540402835291602001916101ff565b820191906000526020600020905b8154815290600101906020018083116101e257829003601f168201915b50505050508152602001600282015481526020016003820160009054906101000a900460ff1660ff1660ff1681525050815260200190600101906100fd565b50505050905090565b60036020528060005260406000206000915090505481565b60006102a26040518060400160405280601581526020017f5765206861766520256420746f74616c20676d732100000000000000000000008152506000546107f3565b600054905090565b4262014370600360003373ffffffffffffffffffffffffffffffffffffffff1673ffffffffffffffffffffffffffffffffffffffff168152602001908152602001600020546102f99190611026565b10610339576040517f08c379a000000000000000000000000000000000000000000000000000000000815260040161033090610edb565b60405180910390fd5b600160008082825461034b9190611026565b925050819055506103916040518060400160405280600f81526020017f257320686173207361696420676d2100000000000000000000000000000000008152503361088f565b606460015442446103a29190611026565b6103ac9190611026565b6103b69190611139565b60018190555060004262015f90600360003373ffffffffffffffffffffffffffffffffffffffff1673ffffffffffffffffffffffffffffffffffffffff1681526020019081526020016000205461040d9190611026565b11905060008180156104225750600a60015411155b9050600082610432576000610442565b8161043e576002610441565b60015b5b905042600360003373ffffffffffffffffffffffffffffffffffffffff1673ffffffffffffffffffffffffffffffffffffffff16815260200190815260200160002081905550600260405180608001604052803373ffffffffffffffffffffffffffffffffffffffff1681526020018681526020014281526020018360ff16815250908060018154018082558091505060019003906000526020600020906004020160009091909190915060008201518160000160006101000a81548173ffffffffffffffffffffffffffffffffffffffff021916908373ffffffffffffffffffffffffffffffffffffffff1602179055506020820151816001019080519060200190610550929190610954565b506040820151816002015560608201518160030160006101000a81548160ff021916908360ff160217905550505081156106c0576105c36040518060400160405280600781526020017f257320776f6e21000000000000000000000000000000000000000000000000008152503361088f565b6000655af3107a4000905047811115610611576040517f08c379a000000000000000000000000000000000000000000000000000000000815260040161060890610e9b565b60405180910390fd5b60003373ffffffffffffffffffffffffffffffffffffffff168260405161063790610de2565b60006040518083038185875af1925050503d8060008114610674576040519150601f19603f3d011682016040523d82523d6000602084013e610679565b606091505b50509050806106bd576040517f08c379a00000000000000000000000000000000000000000000000000000000081526004016106b490610ebb565b60405180910390fd5b50505b6107026040518060400160405280600a81526020017f5374617475733a202564000000000000000000000000000000000000000000008152508260ff166107f3565b3373ffffffffffffffffffffffffffffffffffffffff167f13146e47671e65b6e5065eeaad9ed75e13fe8e6dd7e7c280222bac7c3950186342868460405161074c93929190610f16565b60405180910390a250505050565b6107f08160405160240161076e9190610e19565b6040516020818303038152906040527f41304fac000000000000000000000000000000000000000000000000000000007bffffffffffffffffffffffffffffffffffffffffffffffffffffffff19166020820180517bffffffffffffffffffffffffffffffffffffffffffffffffffffffff838183161783525050505061092b565b50565b61088b8282604051602401610809929190610e6b565b6040516020818303038152906040527f9710a9d0000000000000000000000000000000000000000000000000000000007bffffffffffffffffffffffffffffffffffffffffffffffffffffffff19166020820180517bffffffffffffffffffffffffffffffffffffffffffffffffffffffff838183161783525050505061092b565b5050565b61092782826040516024016108a5929190610e3b565b6040516020818303038152906040527f319af333000000000000000000000000000000000000000000000000000000007bffffffffffffffffffffffffffffffffffffffffffffffffffffffff19166020820180517bffffffffffffffffffffffffffffffffffffffffffffffffffffffff838183161783525050505061092b565b5050565b60008151905060006a636f6e736f6c652e6c6f679050602083016000808483855afa5050505050565b82805461096090611107565b90600052602060002090601f01602090048101928261098257600085556109c9565b82601f1061099b57805160ff19168380011785556109c9565b828001600101855582156109c9579182015b828111156109c85782518255916020019190600101906109ad565b5b5090506109d691906109da565b5090565b5b808211156109f35760008160009055506001016109db565b5090565b6000610a0a610a0584610f85565b610f54565b905082815260208101848484011115610a2257600080fd5b610a2d8482856110c5565b509392505050565b600081359050610a4481611237565b92915050565b600082601f830112610a5b57600080fd5b8135610a6b8482602086016109f7565b91505092915050565b600060208284031215610a8657600080fd5b6000610a9484828501610a35565b91505092915050565b600060208284031215610aaf57600080fd5b600082013567ffffffffffffffff811115610ac957600080fd5b610ad584828501610a4a565b91505092915050565b6000610aea8383610d43565b905092915050565b610afb8161107c565b82525050565b610b0a8161107c565b82525050565b6000610b1b82610fc5565b610b258185610fe8565b935083602082028501610b3785610fb5565b8060005b85811015610b735784840389528151610b548582610ade565b9450610b5f83610fdb565b925060208a01995050600181019050610b3b565b50829750879550505050505092915050565b6000610b9082610fd0565b610b9a8185611004565b9350610baa8185602086016110d4565b610bb381611226565b840191505092915050565b6000610bc982610fd0565b610bd38185611015565b9350610be38185602086016110d4565b610bec81611226565b840191505092915050565b6000610c04603483611015565b91507f547279696e6720746f207769746864726177206d6f7265206d6f6e657920746860008301527f616e2074686520636f6e7472616374206861732e0000000000000000000000006020830152604082019050919050565b6000610c6a602783611015565b91507f4661696c656420746f207769746864726177206d6f6e65792066726f6d20636f60008301527f6e74726163742e000000000000000000000000000000000000000000000000006020830152604082019050919050565b6000610cd0602583611015565b91507f416e6f7468657220476d2063616e2062652073656e742061667465722032332060008301527f686f7572730000000000000000000000000000000000000000000000000000006020830152604082019050919050565b6000610d36600083610ff9565b9150600082019050919050565b6000608083016000830151610d5b6000860182610af2565b5060208301518482036020860152610d738282610b85565b9150506040830151610d886040860182610da6565b506060830151610d9b6060860182610dc4565b508091505092915050565b610daf816110ae565b82525050565b610dbe816110ae565b82525050565b610dcd816110b8565b82525050565b610ddc816110b8565b82525050565b6000610ded82610d29565b9150819050919050565b60006020820190508181036000830152610e118184610b10565b905092915050565b60006020820190508181036000830152610e338184610bbe565b905092915050565b60006040820190508181036000830152610e558185610bbe565b9050610e646020830184610b01565b9392505050565b60006040820190508181036000830152610e858185610bbe565b9050610e946020830184610db5565b9392505050565b60006020820190508181036000830152610eb481610bf7565b9050919050565b60006020820190508181036000830152610ed481610c5d565b9050919050565b60006020820190508181036000830152610ef481610cc3565b9050919050565b6000602082019050610f106000830184610db5565b92915050565b6000606082019050610f2b6000830186610db5565b8181036020830152610f3d8185610bbe565b9050610f4c6040830184610dd3565b949350505050565b6000604051905081810181811067ffffffffffffffff82111715610f7b57610f7a6111f7565b5b8060405250919050565b600067ffffffffffffffff821115610fa057610f9f6111f7565b5b601f19601f8301169050602081019050919050565b6000819050602082019050919050565b600081519050919050565b600081519050919050565b6000602082019050919050565b600082825260208201905092915050565b600081905092915050565b600082825260208201905092915050565b600082825260208201905092915050565b6000611031826110ae565b915061103c836110ae565b9250827fffffffffffffffffffffffffffffffffffffffffffffffffffffffffffffffff038211156110715761107061116a565b5b828201905092915050565b60006110878261108e565b9050919050565b600073ffffffffffffffffffffffffffffffffffffffff82169050919050565b6000819050919050565b600060ff82169050919050565b82818337600083830152505050565b60005b838110156110f25780820151818401526020810190506110d7565b83811115611101576000848401525b50505050565b6000600282049050600182168061111f57607f821691505b60208210811415611133576111326111c8565b5b50919050565b6000611144826110ae565b915061114f836110ae565b92508261115f5761115e611199565b5b828206905092915050565b7f4e487b7100000000000000000000000000000000000000000000000000000000600052601160045260246000fd5b7f4e487b7100000000000000000000000000000000000000000000000000000000600052601260045260246000fd5b7f4e487b7100000000000000000000000000000000000000000000000000000000600052602260045260246000fd5b7f4e487b7100000000000000000000000000000000000000000000000000000000600052604160045260246000fd5b6000601f19601f8301169050919050565b6112408161107c565b811461124b57600080fd5b5056fea2646970667358221220d25b2c81e145652abc2e0700d5af633d6bf9d66d298805754a647c48f23f69a764736f6c63430008000033",
  "linkReferences": {},
  "deployedLinkReferences": {}
}